{
    "page": 1,
    "totalPages": 1,
    "itemsOnPage": 1000,
    "address": "1JEYhhAGC2JkLJhdnC1tWk2CtH64sX2Ur8",
    "balance": "0",
    "totalReceived": "177396",
    "totalSent": "177396",
    "unconfirmedBalance": "0",
    "unconfirmedTxs": 0,
    "txs": 4,
    "transactions": [
        {
            "txid": "b62aa5203fa27495ea431b91a5090aab741c8c39cc03ec4c1f4f4e157507595f",
            "version": 1,
            "vin": [
                {
                    "txid": "a0a7e1bb6460bffed958bc80d74966be14fdec09608408de351053d1e8d653a1",
                    "sequence": 4294967295,
                    "n": 0,
                    "addresses": [
                        "1JEYhhAGC2JkLJhdnC1tWk2CtH64sX2Ur8"
                    ],
                    "isAddress": true,
                    "isOwn": true,
                    "value": "67396",
                    "hex": "4730440220477f6885e053e51dd6c71fbb1c410f229c1f1b742d0525d8e4128bb8c7de53d9022053a06c1da2d3a955ab942e739dec05ba67875356bffc816b705d1da96f1535f4012102d66846e33e07dd40922a36b004d99be924ede6ff164065b16695394098bca647"
                }
            ],
            "vout": [
                {
                    "value": "65348",
                    "n": 0,
                    "spent": true,
                    "hex": "76a9145834479edbbe0539b31ffd3a8f8ebadc2165ed0188ac",
                    "addresses": [
                        "193P6LtvS4nCnkDvM9uXn1gsSRqh4aDAz7"
                    ],
                    "isAddress": true
                }
            ],
            "blockHash": "00000000000000000006a6ffa1419f555e3bf7762b856c66443a2bcfcd2c83b1",
            "blockHeight": 509003,
            "confirmations": 255033,
            "blockTime": 1518532140,
            "value": "65348",
            "valueIn": "67396",
            "fees": "2048",
            "hex": "0100000001a153d6e8d1531035de08846009ecfd14be6649d780bc58d9febf6064bbe1a7a0000000006a4730440220477f6885e053e51dd6c71fbb1c410f229c1f1b742d0525d8e4128bb8c7de53d9022053a06c1da2d3a955ab942e739dec05ba67875356bffc816b705d1da96f1535f4012102d66846e33e07dd40922a36b004d99be924ede6ff164065b16695394098bca647ffffffff0144ff0000000000001976a9145834479edbbe0539b31ffd3a8f8ebadc2165ed0188ac00000000"
        },
        {
            "txid": "a0a7e1bb6460bffed958bc80d74966be14fdec09608408de351053d1e8d653a1",
            "version": 1,
            "vin": [
                {
                    "txid": "fd26bda72c0867d9284deb507bc086288603f9113438a8ab74724e0b6191f291",
                    "vout": 1,
                    "sequence": 4294967295,
                    "n": 0,
                    "addresses": [
                        "3EEAuMT9VeteN4mTcC6NbubSEx94Rfq8C1"
                    ],
                    "isAddress": true,
                    "value": "34930",
                    "hex": "00483045022100d043d57189394e739631ebc6a7c5d8da61a5036917b477462482c76f22a9261c02207f39d7f76be82cbd5173658b8cac593e9fd3d6fe3f97c1e669957cb6a9b0975f01473044022018246ca0fb0decfc3a10384933cec8d8a42630ddb097e345f586b11eaca21d9b022021480ac7d5ac74effc16e1c10e4d6a32f4da4956aae4fc39a80c089c2d1a9f5e0147522102907a54bed8ad74b3f35638c60114ca240a308cb986f3f2f306178869a8880b6121031606adabf8ac5e0516e2ca7bb409019bb570d575e8795eaad55374457a792b1652ae"
                },
                {
                    "txid": "973bc7641991d47a4badac6ac567405c26c03ab566a18bb856b7a6b3f9aece0b",
                    "sequence": 4294967295,
                    "n": 1,
                    "addresses": [
                        "32JnwuVY4aLsPxW9VphZ7CRFwVuCQ2Y2dK"
                    ],
                    "isAddress": true,
                    "value": "232310",
                    "hex": "00483045022100ea89693ab6f05bbb69ffc89557e0b23d6cbff16b5a61c4a696f5ce9f34561a5e02202008cc389058c12909536df0f5d5c1b885c025d09224458df7381ead440732ba0147304402204f7813c104db1a7aa41f864796c5a54cef3ad894472f843ce22882424efcb3fd022030504c567c579611c2fbfc52b20ea551bbc36191b4f0fe9059bfe8f42849190a0147522102907a54bed8ad74b3f35638c60114ca240a308cb986f3f2f306178869a8880b6121038b180370e80e2289d379e6ad63a47db913bcc753f937e52d7d36ea32b9a2bdcd52ae"
                },
                {
                    "txid": "28d389040a525ce4ddb25d020f24f5777f3beaa6b49aacc59161cb74ee86b6e9",
                    "vout": 2,
                    "sequence": 4294967295,
                    "n": 2,
                    "addresses": [
                        "1PGr6CbRZuVDWVjhqm54WmAenCJyDAG22v"
                    ],
                    "isAddress": true,
                    "value": "293526",
                    "hex": "47304402201b5bfce0c638dc40f77f015e63030aea6810adf345873d336cf857bfde50a96702204fd165a55b6df39961a3fa04aebcc3522db22b49299e3abd982d97af0c8aae380121026df19a1f2e2082a5ed5a28c26ef5d24dd0cd3f67e1a201375756940b8fff6259"
                }
            ],
            "vout": [
                {
                    "value": "67396",
                    "n": 0,
                    "spent": true,
                    "hex": "76a914bd0a024cd4bee2b3ea58b9a420a8968e30c2197a88ac",
                    "addresses": [
                        "1JEYhhAGC2JkLJhdnC1tWk2CtH64sX2Ur8"
                    ],
                    "isAddress": true,
                    "isOwn": true
                },
                {
                    "value": "138833",
                    "n": 1,
                    "spent": true,
                    "hex": "a914edfc157116b444eaab92df59bffa84ff0466c69f87",
                    "addresses": [
                        "3PPN46QdkkLBs8KEua5v2qPZGy54CYAXTs"
                    ],
                    "isAddress": true
                },
                {
                    "value": "288733",
                    "n": 2,
                    "spent": true,
                    "hex": "76a9144aab6dd060ba9fa0ceeff6f94b522a178418d8ad88ac",
                    "addresses": [
                        "17opNHjQAqBheBubbxRgRQAPrmR6ePsB8k"
                    ],
                    "isAddress": true
                }
            ],
            "blockHash": "000000000000000000605d39da6de74631bb1bbcdfb4703cb7f301e236ced12b",
            "blockHeight": 508998,
            "confirmations": 255038,
            "blockTime": 1518529936,
            "value": "494962",
            "valueIn": "560766",
            "fees": "65804",
            "hex": "010000000391f291610b4e7274aba8383411f903862886c07b50eb4d28d967082ca7bd26fd01000000da00483045022100d043d57189394e739631ebc6a7c5d8da61a5036917b477462482c76f22a9261c02207f39d7f76be82cbd5173658b8cac593e9fd3d6fe3f97c1e669957cb6a9b0975f01473044022018246ca0fb0decfc3a10384933cec8d8a42630ddb097e345f586b11eaca21d9b022021480ac7d5ac74effc16e1c10e4d6a32f4da4956aae4fc39a80c089c2d1a9f5e0147522102907a54bed8ad74b3f35638c60114ca240a308cb986f3f2f306178869a8880b6121031606adabf8ac5e0516e2ca7bb409019bb570d575e8795eaad55374457a792b1652aeffffffff0bceaef9b3a6b756b88ba166b53ac0265c4067c56aacad4b7ad4911964c73b9700000000da00483045022100ea89693ab6f05bbb69ffc89557e0b23d6cbff16b5a61c4a696f5ce9f34561a5e02202008cc389058c12909536df0f5d5c1b885c025d09224458df7381ead440732ba0147304402204f7813c104db1a7aa41f864796c5a54cef3ad894472f843ce22882424efcb3fd022030504c567c579611c2fbfc52b20ea551bbc36191b4f0fe9059bfe8f42849190a0147522102907a54bed8ad74b3f35638c60114ca240a308cb986f3f2f306178869a8880b6121038b180370e80e2289d379e6ad63a47db913bcc753f937e52d7d36ea32b9a2bdcd52aeffffffffe9b686ee74cb6191c5ac9ab4a6ea3b7f77f5240f025db2dde45c520a0489d328020000006a47304402201b5bfce0c638dc40f77f015e63030aea6810adf345873d336cf857bfde50a96702204fd165a55b6df39961a3fa04aebcc3522db22b49299e3abd982d97af0c8aae380121026df19a1f2e2082a5ed5a28c26ef5d24dd0cd3f67e1a201375756940b8fff6259ffffffff0344070100000000001976a914bd0a024cd4bee2b3ea58b9a420a8968e30c2197a88ac511e02000000000017a914edfc157116b444eaab92df59bffa84ff0466c69f87dd670400000000001976a9144aab6dd060ba9fa0ceeff6f94b522a178418d8ad88ac00000000"
        },
        {
            "txid": "884a2eb058b4360cbc5a4fa8131f3e0ec34aff5c635e34feb3c457d12d0bc93d",
            "version": 1,
            "vin": [
                {
                    "txid": "ca1910e01ed32e7a9408b7e9e99f39bd4ef6be1911a1fb5a3d5533fa01f61df6",
                    "sequence": 4294967295,
                    "n": 0,
                    "addresses": [
                        "1JEYhhAGC2JkLJhdnC1tWk2CtH64sX2Ur8"
                    ],
                    "isAddress": true,
                    "isOwn": true,
                    "value": "110000",
                    "hex": "483045022100f23c484d99e49ac48d59be9d2bf4bd1d3934dd7e49ca30848170e0c751f0e3f4022019fe437977c23c11ce5b09c8786c0b86dc22c0e5ab1af86323c357f4b9484455012102d66846e33e07dd40922a36b004d99be924ede6ff164065b16695394098bca647"
                }
            ],
            "vout": [
                {
                    "value": "60000",
                    "n": 0,
                    "spent": true,
                    "hex": "76a9143442193e1bb70916e914552172cd4e2dbc9df81188ac",
                    "addresses": [
                        "15mKKb2eos1hWa6tisdPwwDC1a5J1y9nma"
                    ],
                    "isAddress": true
                }
            ],
            "blockHash": "000000000000004cb7aa951aa3aa37ce55d972b56bc07df867a84a78a74aed49",
            "blockHeight": 246485,
            "confirmations": 517551,
            "blockTime": 1373782733,
            "value": "60000",
            "valueIn": "110000",
            "fees": "50000",
            "hex": "0100000001f61df601fa33553d5afba11119bef64ebd399fe9e9b708947a2ed31ee01019ca000000006b483045022100f23c484d99e49ac48d59be9d2bf4bd1d3934dd7e49ca30848170e0c751f0e3f4022019fe437977c23c11ce5b09c8786c0b86dc22c0e5ab1af86323c357f4b9484455012102d66846e33e07dd40922a36b004d99be924ede6ff164065b16695394098bca647ffffffff0160ea0000000000001976a9143442193e1bb70916e914552172cd4e2dbc9df81188ac00000000"
        },
        {
            "txid": "ca1910e01ed32e7a9408b7e9e99f39bd4ef6be1911a1fb5a3d5533fa01f61df6",
            "version": 1,
            "vin": [
                {
                    "txid": "d689cce8bbedca616f0b02d8201e7525f6dc69cddb01c772967214945e1d6724",
                    "sequence": 4294967295,
                    "n": 0,
                    "addresses": [
                        "182PKRbWERn9gVGK4uoxKNctGQ4ajMNfwg"
                    ],
                    "isAddress": true,
                    "value": "110000",
                    "hex": "483045022031cec05d859689257b6d74dd9aea81219321a9e0d10dcf01465cb05b0aa435fe022100ce014a05ae07429efb2580d546541d24adf6c76c56f843c4e7f478008e65bd870141044cd30ddba0b3b9a454f747f1e287e6f558f7a3a2e74e410141f6152a3c3796db7873f9b45509ffe04ecfb03d26795808a057599e7b19a921b5afcd823ac36765"
                },
                {
                    "txid": "0b7b5007c0923cad3d3b3116bb3f3332f75aaf6f25efc81eec84e65b980d3fd1",
                    "vout": 2,
                    "sequence": 4294967295,
                    "n": 1,
                    "addresses": [
                        "1GeLRFgC5nu3cSqj36oJ9dqxXd6T4A9B3F"
                    ],
                    "isAddress": true,
                    "value": "1239312",
                    "hex": "483045022100a707d02405107bc2eb083e23ac8bc7f9c497f5b70ce05e9117fc44dfb573dd7902206274a9759831cc276555c68cc1bfb109637a56d7cb767dc055d452d22b41617a014104a004cb41e4ee56b610b5dbe1fd4812feebc89d1a0c952f3c014d41df6a34ddb888b93056859303edde1afd59746102aefa48f085696393a376a869cc11679727"
                }
            ],
            "vout": [
                {
                    "value": "110000",
                    "n": 0,
                    "spent": true,
                    "hex": "76a914bd0a024cd4bee2b3ea58b9a420a8968e30c2197a88ac",
                    "addresses": [
                        "1JEYhhAGC2JkLJhdnC1tWk2CtH64sX2Ur8"
                    ],
                    "isAddress": true,
                    "isOwn": true
                },
                {
                    "value": "1189312",
                    "n": 1,
                    "spent": true,
                    "hex": "76a9147b81225f4764d7a7bf3df0f6bb113d4ef836331b88ac",
                    "addresses": [
                        "1CG2p15Faftg52MMhnbFetinR96pjhQD5h"
                    ],
                    "isAddress": true
                }
            ],
            "blockHash": "000000000000000ceec5700ec57cc5fbbc94b0f057ab8205d35896f92b9a33ec",
            "blockHeight": 246483,
            "confirmations": 517553,
            "blockTime": 1373781474,
            "value": "1299312",
            "valueIn": "1349312",
            "fees": "50000",
            "hex": "010000000224671d5e9414729672c701dbcd69dcf625751e20d8020b6f61caedbbe8cc89d6000000008b483045022031cec05d859689257b6d74dd9aea81219321a9e0d10dcf01465cb05b0aa435fe022100ce014a05ae07429efb2580d546541d24adf6c76c56f843c4e7f478008e65bd870141044cd30ddba0b3b9a454f747f1e287e6f558f7a3a2e74e410141f6152a3c3796db7873f9b45509ffe04ecfb03d26795808a057599e7b19a921b5afcd823ac36765ffffffffd13f0d985be684ec1ec8ef256faf5af732333fbb16313b3dad3c92c007507b0b020000008b483045022100a707d02405107bc2eb083e23ac8bc7f9c497f5b70ce05e9117fc44dfb573dd7902206274a9759831cc276555c68cc1bfb109637a56d7cb767dc055d452d22b41617a014104a004cb41e4ee56b610b5dbe1fd4812feebc89d1a0c952f3c014d41df6a34ddb888b93056859303edde1afd59746102aefa48f085696393a376a869cc11679727ffffffff02b0ad0100000000001976a914bd0a024cd4bee2b3ea58b9a420a8968e30c2197a88acc0251200000000001976a9147b81225f4764d7a7bf3df0f6bb113d4ef836331b88ac00000000"
        }
    ]
}