{
    "txid": "36b92e05aa5aeb4ca09393185b49a558cdad8870c0e0e53b3e041d95628a9761",
    "version": 1,
    "vin": [
        {
            "txid": "4250422a6a6c6d34efb43ccd2e74a0de35fea23ceadb808c4fc889e1406b3b8c",
            "sequence": 4294967295,
            "n": 0,
            "addresses": [
                "1A63Lr44xNHkpo5jjqbccwophxQuZsJwEf"
            ],
            "isAddress": true,
            "value": "100000",
            "hex": "483045022100b6c5114539a802f5dcd2b684e60598edff74163f58af25bdd8466854ace926a5022076a6d38e10a33c6ef56cf4e88d0ca70f7e63feadc5ffeed9a5fee3c0568518040141046d8b137e95bafdacdbcfb836c974268806f7bfd8b06d38b66f32df35fa539f430c4f9b527bda0fb9d3ba22a8e8c9aafe86d9a2cc55401390ffccc7025973977c"
        },
        {
            "txid": "8d2db84c85920974bfec24ccc4507c2da78d20b6d1dc928a11e22d0691972279",
            "vout": 2,
            "sequence": 4294967295,
            "n": 1,
            "addresses": [
                "1CsJqhszmvXe4fEvNGB3egBNAwCiwivQvw"
            ],
            "isAddress": true,
            "value": "1489466",
            "hex": "49304602210089c4230eda2edd28d3248ce099eca4c96382652250abb8b60280ac5c47dc70f6022100a95158610cf0c269b5340fa445769f766247bac92a197488ac6ad43b754e78c30141048daead47cb9d78b427794f82bbd2263c63b4e9ff8c7c459834c0a1169240183c098464e9f3bc8910dd7847a5683ccb458beb800df509cfc34dde766255f9af17"
        }
    ],
    "vout": [
        {
            "value": "100000",
            "n": 0,
            "spent": true,
            "hex": "76a9143f73b361448ced2f5517d834581c39fa7951a14888ac",
            "addresses": [
                "16nWB7Si2hTUtqi71dXtFBreScGWfhyNnm"
            ],
            "isAddress": true
        },
        {
            "value": "1439466",
            "n": 1,
            "spent": true,
            "hex": "76a91431ef85218c25b4f034bb3837d09c51ec8e4cef0588ac",
            "addresses": [
                "15Z33YZAd5aGNN5vGBdv5AihEzJrbMXeVE"
            ],
            "isAddress": true
        }
    ],
    "blockHash": "00000000000000836597cc216daeda1e7d82361a04312f29bf75c12b511bb2db",
    "blockHeight": 246469,
    "confirmations": 514376,
    "blockTime": 1373774452,
    "value": "1539466",
    "valueIn": "1589466",
    "fees": "50000",
    "hex": "01000000028c3b6b40e189c84f8c80dbea3ca2fe35dea0742ecd3cb4ef346d6c6a2a425042000000008b483045022100b6c5114539a802f5dcd2b684e60598edff74163f58af25bdd8466854ace926a5022076a6d38e10a33c6ef56cf4e88d0ca70f7e63feadc5ffeed9a5fee3c0568518040141046d8b137e95bafdacdbcfb836c974268806f7bfd8b06d38b66f32df35fa539f430c4f9b527bda0fb9d3ba22a8e8c9aafe86d9a2cc55401390ffccc7025973977cffffffff79229791062de2118a92dcd1b6208da72d7c50c4cc24ecbf740992854cb82d8d020000008c49304602210089c4230eda2edd28d3248ce099eca4c96382652250abb8b60280ac5c47dc70f6022100a95158610cf0c269b5340fa445769f766247bac92a197488ac6ad43b754e78c30141048daead47cb9d78b427794f82bbd2263c63b4e9ff8c7c459834c0a1169240183c098464e9f3bc8910dd7847a5683ccb458beb800df509cfc34dde766255f9af17ffffffff02a0860100000000001976a9143f73b361448ced2f5517d834581c39fa7951a14888aceaf61500000000001976a91431ef85218c25b4f034bb3837d09c51ec8e4cef0588ac00000000"
}
